{"abi":[{"type":"fallback","stateMutability":"payable"},{"type":"receive","stateMutability":"payable"},{"type":"function","name":"balanceOf","inputs":[{"name":"user","type":"address","internalType":"address"}],"outputs":[{"name":"","type":"uint256","internalType":"uint256"}],"stateMutability":"view"},{"type":"function","name":"balances","inputs":[{"name":"","type":"address","internalType":"address"}],"outputs":[{"name":"","type":"uint256","internalType":"uint256"}],"stateMutability":"view"},{"type":"function","name":"deposit","inputs":[],"outputs":[],"stateMutability":"payable"},{"type":"function","name":"withdraw","inputs":[{"name":"amount","type":"uint256","internalType":"uint256"}],"outputs":[],"stateMutability":"nonpayable"},{"type":"event","name":"Deposited","inputs":[{"name":"user","type":"address","indexed":true,"internalType":"address"},{"name":"amount","type":"uint256","indexed":false,"internalType":"uint256"}],"anonymous":false},{"type":"event","name":"Withdrawn","inputs":[{"name":"user","type":"address","indexed":true,"internalType":"address"},{"name":"amount","type":"uint256","indexed":false,"internalType":"uint256"}],"anonymous":false}],"bytecode":{"object":"0x6080604052348015600e575f5ffd5b5061089e8061001c5f395ff3fe608060405260043610610042575f3560e01c806327e235e31461018b5780632e1a7d4d146101c757806370a08231146101ef578063d0e30db01461022b576100e9565b366100e957345f5f3373ffffffffffffffffffffffffffffffffffffffff1673ffffffffffffffffffffffffffffffffffffffff1681526020019081526020015f205f8282546100929190610573565b925050819055503373ffffffffffffffffffffffffffffffffffffffff167f2da466a7b24304f47e87fa2e1e5a81b9831ce54fec19055ce277ca2f39ba42c4346040516100df91906105b5565b60405180910390a2005b345f5f3373ffffffffffffffffffffffffffffffffffffffff1673ffffffffffffffffffffffffffffffffffffffff1681526020019081526020015f205f8282546101349190610573565b925050819055503373ffffffffffffffffffffffffffffffffffffffff167f2da466a7b24304f47e87fa2e1e5a81b9831ce54fec19055ce277ca2f39ba42c43460405161018191906105b5565b60405180910390a2005b348015610196575f5ffd5b506101b160048036038101906101ac919061062c565b610235565b6040516101be91906105b5565b60405180910390f35b3480156101d2575f5ffd5b506101ed60048036038101906101e89190610681565b610249565b005b3480156101fa575f5ffd5b506102156004803603810190610210919061062c565b610414565b60405161022291906105b5565b60405180910390f35b610233610459565b005b5f602052805f5260405f205f915090505481565b805f5f3373ffffffffffffffffffffffffffffffffffffffff1673ffffffffffffffffffffffffffffffffffffffff1681526020019081526020015f205410156102c8576040517f08c379a00000000000000000000000000000000000000000000000000000000081526004016102bf90610706565b60405180910390fd5b805f5f3373ffffffffffffffffffffffffffffffffffffffff1673ffffffffffffffffffffffffffffffffffffffff1681526020019081526020015f205f8282546103139190610724565b925050819055505f3373ffffffffffffffffffffffffffffffffffffffff168260405161033f90610784565b5f6040518083038185875af1925050503d805f8114610379576040519150601f19603f3d011682016040523d82523d5f602084013e61037e565b606091505b50509050806103c2576040517f08c379a00000000000000000000000000000000000000000000000000000000081526004016103b9906107e2565b60405180910390fd5b3373ffffffffffffffffffffffffffffffffffffffff167f7084f5476618d8e60b11ef0d7d3f06914655adb8793e28ff7f018d4c76d505d58360405161040891906105b5565b60405180910390a25050565b5f5f5f8373ffffffffffffffffffffffffffffffffffffffff1673ffffffffffffffffffffffffffffffffffffffff1681526020019081526020015f20549050919050565b5f341161049b576040517f08c379a00000000000000000000000000000000000000000000000000000000081526004016104929061084a565b60405180910390fd5b345f5f3373ffffffffffffffffffffffffffffffffffffffff1673ffffffffffffffffffffffffffffffffffffffff1681526020019081526020015f205f8282546104e69190610573565b925050819055503373ffffffffffffffffffffffffffffffffffffffff167f2da466a7b24304f47e87fa2e1e5a81b9831ce54fec19055ce277ca2f39ba42c43460405161053391906105b5565b60405180910390a2565b5f819050919050565b7f4e487b71000000000000000000000000000000000000000000000000000000005f52601160045260245ffd5b5f61057d8261053d565b91506105888361053d565b92508282019050808211156105a05761059f610546565b5b92915050565b6105af8161053d565b82525050565b5f6020820190506105c85f8301846105a6565b92915050565b5f5ffd5b5f73ffffffffffffffffffffffffffffffffffffffff82169050919050565b5f6105fb826105d2565b9050919050565b61060b816105f1565b8114610615575f5ffd5b50565b5f8135905061062681610602565b92915050565b5f60208284031215610641576106406105ce565b5b5f61064e84828501610618565b91505092915050565b6106608161053d565b811461066a575f5ffd5b50565b5f8135905061067b81610657565b92915050565b5f60208284031215610696576106956105ce565b5b5f6106a38482850161066d565b91505092915050565b5f82825260208201905092915050565b7f496e73756666696369656e742066756e647300000000000000000000000000005f82015250565b5f6106f06012836106ac565b91506106fb826106bc565b602082019050919050565b5f6020820190508181035f83015261071d816106e4565b9050919050565b5f61072e8261053d565b91506107398361053d565b925082820390508181111561075157610750610546565b5b92915050565b5f81905092915050565b50565b5f61076f5f83610757565b915061077a82610761565b5f82019050919050565b5f61078e82610764565b9150819050919050565b7f5472616e73666572206661696c656400000000000000000000000000000000005f82015250565b5f6107cc600f836106ac565b91506107d782610798565b602082019050919050565b5f6020820190508181035f8301526107f9816107c0565b9050919050565b7f4d757374206465706f736974203e2030000000000000000000000000000000005f82015250565b5f6108346010836106ac565b915061083f82610800565b602082019050919050565b5f6020820190508181035f83015261086181610828565b905091905056fea26469706673582212205377965b9cb6b1c81e19fb7eacd1bc018ddd370f6b732430e6a34daba93761e364736f6c634300081c0033","linkReferences":{}},"methodIdentifiers":{"balanceOf(address)":"70a08231","balances(address)":"27e235e3","deposit()":"d0e30db0","withdraw(uint256)":"2e1a7d4d"},"id":19}